:020000040000fa
:080000000001040000000000f3
:020000040000fa
:04000800c80100002b
:020000040000fa
:04000c00c801000027
:020000040000fa
:04001000c801000023
:020000040000fa
:04001400c80100001f
:020000040000fa
:04001800c80100001b
:020000040000fa
:04001c00c801000017
:020000040000fa
:04002000c801000013
:020000040000fa
:04002400c80100000f
:020000040000fa
:04002800c80100000b
:020000040000fa
:04002c00c801000007
:020000040000fa
:04003000c801000003
:020000040000fa
:04003400660400005e
:020000040000fa
:04003800c8010000fb
:020000040000fa
:04003c00c8010000f7
:020000040000fa
:04004000c8010000f3
:020000040000fa
:04004400c8010000ef
:020000040000fa
:04004800c8010000eb
:020000040000fa
:04004c00c8010000e7
:020000040000fa
:04005000c8010000e3
:020000040000fa
:04005400c8010000df
:020000040000fa
:04005800c8010000db
:020000040000fa
:04005c00c8010000d7
:020000040000fa
:04006000c8010000d3
:020000040000fa
:04006400c8010000cf
:020000040000fa
:04006800c8010000cb
:020000040000fa
:04006c00c8010000c7
:020000040000fa
:04007000c8010000c3
:020000040000fa
:04007400c8010000bf
:020000040000fa
:04007800c8010000bb
:020000040000fa
:04007c00c8010000b7
:020000040000fa
:04008000c8010000b3
:020000040000fa
:04008400c8010000af
:020000040000fa
:04008800c8010000ab
:020000040000fa
:04008c00c8010000a7
:020000040000fa
:04009000c8010000a3
:020000040000fa
:04009400c80100009f
:020000040000fa
:04009800c80100009b
:020000040000fa
:04009c00c801000097
:020000040000fa
:0400a000c801000093
:020000040000fa
:0400a400c80100008f
:020000040000fa
:0400a800c80100008b
:020000040000fa
:0400ac00c801000087
:020000040000fa
:0400b000c801000083
:020000040000fa
:0400b400c80100007f
:020000040000fa
:0400b800c80100007b
:020000040000fa
:0400bc00c801000077
:020000040000fa
:0400c000c801000073
:020000040000fa
:0400c400c80100006f
:020000040000fa
:0400c800c80100006b
:020000040000fa
:0400cc00c801000067
:020000040000fa
:0400d000c801000063
:020000040000fa
:0400d400c80100005f
:020000040000fa
:0400d800c80100005b
:020000040000fa
:04010800c80100002a
:020000040000fa
:04010c00c801000026
:020000040000fa
:04011000c801000022
:020000040000fa
:04011400c80100001e
:020000040000fa
:04011800c80100001a
:020000040000fa
:04011c00c801000016
:020000040000fa
:04012000c801000012
:020000040000fa
:04012400c80100000e
:020000040000fa
:04012800c80100000a
:020000040000fa
:04012c00c801000006
:020000040000fa
:04013000c801000002
:020000040000fa
:04013400c8010000fe
:020000040000fa
:04013800c8010000fa
:020000040000fa
:04013c00c8010000f6
:020000040000fa
:04014000c8010000f2
:020000040000fa
:04014400c8010000ee
:020000040000fa
:04014800c8010000ea
:020000040000fa
:04014c00c8010000e6
:020000040000fa
:04015000c8010000e2
:020000040000fa
:04015400c8010000de
:020000040000fa
:04015800c8010000da
:020000040000fa
:04015c00c8010000d6
:020000040000fa
:04016000c8010000d2
:020000040000fa
:04016400c8010000ce
:020000040000fa
:04016800c8010000ca
:020000040000fa
:04016c00c8010000c6
:020000040000fa
:04017000c8010000c2
:020000040000fa
:04017400c8010000be
:020000040000fa
:04017800c8010000ba
:020000040000fa
:04017c00c8010000b6
:020000040000fa
:04018000c8010000b2
:020000040000fa
:04018400c8010000ae
:020000040000fa
:04018800c8010000aa
:020000040000fa
:04018c00c8010000a6
:020000040000fa
:04019000c8010000a2
:020000040000fa
:04019400c80100009e
:020000040000fa
:04019800c80100009a
:020000040000fa
:04019c00c801000096
:020000040000fa
:0401a000c801000092
:020000040000fa
:0401a400c80100008e
:020000040000fa
:0401a800c80100008a
:020000040000fa
:0401ac00c801000086
:020000040000fa
:0401b000c801000082
:020000040000fa
:0401b400c80100007e
:020000040000fa
:0401b800c80100007a
:020000040000fa
:0401bc00c801000076
:020000040000fa
:0401c000c801000072
:020000040000fa
:0401c400c80100006e
:020000040000fa
:0401c800c80100006a
:020000040000fa
:0401cc00c801000066
:020000040000fa
:0401d000c801000062
:020000040000fa
:0401d400c80100005e
:020000040000fa
:0401d800c80100005a
:020000040000fa
:100200002f8820000ef720000e018800000000005b
:10021000000020000000e000020032000001200089
:1002200020028800140007005b0007000000e000c7
:1002300003003a00204520000100200002003700a2
:100240000000200001002000810f7000010032003a
:1002500014000700000020000000e000020032004f
:100260000000020000000000e401020000000000a5
:100270000040da000000fe004440a90060012000b8
:100280000000e0000300320000002000a001880010
:100290004440a800000006008a1f78008b1f7800e9
:1002a0000000060091018800800478000000eb0047
:1002b0001a003700e284440032a0b4009905ba0065
:1002c000e284440032a0b4009906ba00e2844400fb
:1002d00032a0b4000006eb00476fde00fd07b2005d
:1002e000636ce10003003a00ebff07000000eb0045
:1002f0000a003700606ce10004003a00005deb008a
:100300008b05e900fdff3e00040037006168e10055
:10031000010032000086eb000b00070019c7ba008d
:100320001905ba000e04e00003003a000a00e000dc
:10033000e0ff3a0000000600fe07b2009e018800c0
:100340008a047800f5ff3700395dba008b05e900b3
:100350000c003200295dba008b05e900080032006c
:100360000c00e00003003a00e284440032a0b40034
:10037000f5ff370019ddba008b05e900faff3a00f6
:100380008904e800e184440032a0b40000000600c3
:0c0390000040da000000fe000000050044
:020000040000fa
:10039c00444f000000520000450000004d49000091
:1003ac000046000041000000534f00004c000000cc
:0c03bc004c41000000530000490000000c
:020000040000fa
:1003c8000200fa00b2000700d0000700ab000700e7
:1003d8000000eb00000f78000d003700000000005f
:1003e8000b00370000000000090037000000000083
:1003f800070037000000000005003700000000007b
:100408000300370000000000010037000000000072
:1004180000178000610060000000e0000700320063
:100428001e0078000000e000ecff3a004d000700d5
:1004380010002000000f7800f5ff3700001780003b
:10044800620060000000e000070032001e00780033
:100458000000e000e3ff3a004c0007001000200015
:10046800000f7800eaff3700001780006400600082
:100478000000e000070032001e0078000000e000e5
:10048800daff3a004b00070010002000000f780048
:10049800dfff370000178000680060000000e00000
:1004a800070032001e0078000000e000d1ff3a008b
:1004b8004a00070010002000000f7800d4ff370022
:1004c80000178000700060000000e00007003200a4
:1004d8001e0078000000e000c8ff3a00490007004d
:1004e80010002000000f7800c9ff370001178000b6
:1004f80000022000008060000000e00007003200d9
:100508001e0078000000e000beff3a004700070028
:1005180010002000000f7800bdff37000117800091
:1005280000042000008060000000e00007003200a6
:100538001e0078000000e000b4ff3a004500070004
:1005480010002000000f7800b1ff370005e1a90076
:10055800d502a9000000eb00000f78006500070035
:10056800abff37000000fa000021ef007003200005
:10057800100888000002280020088800e01c2800d5
:100588009d0007000080fa00000006000000fa0045
:100598000021ef0010032000100888000002280046
:1005a80020088800101d2800930007000080fa002a
:1005b800000006000000fa000021ef00b000200053
:1005c800100888000003280020088800401d280023
:1005d800890007000080fa00000006000000fa0009
:1005e8000021ef00f0a42000100888000000280077
:1005f80020088800701d28007f0007000080fa008e
:10060800000006000000fa000021ef00f092200030
:10061800100888000000280020088800a01d280075
:10062800750007000080fa00000006000000fa00cc
:100638000021ef0080002000100888000003280037
:1006480020088800e01d28006b0007000080fa00e1
:10065800000006000000fa000021ef00a07420004e
:10066800100888000000280020088800101e2800b4
:10067800610007000080fa00000006000000fa0090
:100688008460a9008c60a8000080fa0000000600c1
:100698000000fa00c822ef0000000000ca22ef00a4
:1006a80000000000c622ef00000000000080eb0000
:1006b8004015880000000000d422ef000000000070
:1006c800d622ef0000000000d222ef000000000058
:1006d800e022ef0000000000e222ef00000000002e
:1006e8000080eb00f0168800000000000080fa008f
:1006f80000000600dc0302000000000010002000db
:100708002e0402000000000000000600440402005d
:1007180000000000000320002e040200000000007a
:100728004404020000000000000320002e04020020
:100738000000000044040200000000000003200044
:100748002e04020000000000dc030200000000008c
:10075800800320002e04020000000000dc030200d9
:1007680000000000800020002e04020000000000ad
:10077800dc03020000000000100020002e0402002c
:1007880000000000dc030200000000006000200000
:100798002e04020000000000dc030200000000003c
:1007a800f00020002e0402000000000000000600f7
:1007b800d462a90000000000c6e2ef0000000000bb
:1007c800d522a80000000000d442a80000000000c4
:1007d800c8e2af00ec03040000000000d442a90006
:1007e80000000000d522a90000000000c662ef004a
:1007f8000000000000000600811f780080007800db
:10080800314078000004e00005003200dc030200fb
:10081800000000001804020000000000f8ff370084
:10082800cf00780000000600d462a8000000000095
:10083800d522a90000000000d442a8000000000052
:10084800c8e2b70000000000d442a9000000000080
:1008580000000600d462a90000000000d522a9000b
:1008680000000000d442a80000000000c8e2b70061
:1008780000000000d442a9000000000000000600ab
:10088800801f78000000eb00b04322000000e90060
:0c089800feff3a004f0078000000060050
:020000040000fa
:1008a400000800008000000000000000800f00002d
:1008b400800000000000000080080000020000002a
:0808c40000000000000000002c
:020000040000fa
:1008cc00d702aa00000000008460a90000400600c6
:020000040000fa
:0408dc000000000018
:020000040000fa
:0200000401f009
:04000000e0b9000063
:020000040000fa
:0200000401f009
:04000400ff7f00007a
:020000040000fa
:0200000401f009
:04000800feff0000f7
:020000040000fa
:0200000401f009
:04001400ffff0000ea
:00000001FF
