:020000040000fa
:080000000001040000000000f3
:020000040000fa
:04000800dc01000017
:020000040000fa
:04000c00dc01000013
:020000040000fa
:04001000dc0100000f
:020000040000fa
:04001400dc0100000b
:020000040000fa
:04001800dc01000007
:020000040000fa
:04001c00dc01000003
:020000040000fa
:04002000dc010000ff
:020000040000fa
:04002400dc010000fb
:020000040000fa
:040028003e03000093
:020000040000fa
:04002c00dc010000f3
:020000040000fa
:04003000dc010000ef
:020000040000fa
:04003400c8010000ff
:020000040000fa
:04003800dc010000e7
:020000040000fa
:04003c00dc010000e3
:020000040000fa
:04004000dc010000df
:020000040000fa
:04004400dc010000db
:020000040000fa
:04004800dc010000d7
:020000040000fa
:04004c00dc010000d3
:020000040000fa
:04005000dc010000cf
:020000040000fa
:04005400dc010000cb
:020000040000fa
:04005800dc010000c7
:020000040000fa
:04005c00dc010000c3
:020000040000fa
:04006000dc010000bf
:020000040000fa
:04006400dc010000bb
:020000040000fa
:04006800dc010000b7
:020000040000fa
:04006c00dc010000b3
:020000040000fa
:04007000dc010000af
:020000040000fa
:04007400dc010000ab
:020000040000fa
:04007800dc010000a7
:020000040000fa
:04007c00dc010000a3
:020000040000fa
:04008000dc0100009f
:020000040000fa
:04008400dc0100009b
:020000040000fa
:04008800dc01000097
:020000040000fa
:04008c00dc01000093
:020000040000fa
:04009000dc0100008f
:020000040000fa
:04009400dc0100008b
:020000040000fa
:04009800dc01000087
:020000040000fa
:04009c00dc01000083
:020000040000fa
:0400a000dc0100007f
:020000040000fa
:0400a400dc0100007b
:020000040000fa
:0400a800dc01000077
:020000040000fa
:0400ac00dc01000073
:020000040000fa
:0400b000dc0100006f
:020000040000fa
:0400b400dc0100006b
:020000040000fa
:0400b800dc01000067
:020000040000fa
:0400bc00dc01000063
:020000040000fa
:0400c000dc0100005f
:020000040000fa
:0400c400dc0100005b
:020000040000fa
:0400c800dc01000057
:020000040000fa
:0400cc00dc01000053
:020000040000fa
:0400d000dc0100004f
:020000040000fa
:0400d400dc0100004b
:020000040000fa
:0400d800dc01000047
:020000040000fa
:04010800dc01000016
:020000040000fa
:04010c00dc01000012
:020000040000fa
:04011000dc0100000e
:020000040000fa
:04011400dc0100000a
:020000040000fa
:04011800dc01000006
:020000040000fa
:04011c00dc01000002
:020000040000fa
:04012000dc010000fe
:020000040000fa
:04012400dc010000fa
:020000040000fa
:04012800dc010000f6
:020000040000fa
:04012c00dc010000f2
:020000040000fa
:04013000dc010000ee
:020000040000fa
:04013400dc010000ea
:020000040000fa
:04013800dc010000e6
:020000040000fa
:04013c00dc010000e2
:020000040000fa
:04014000dc010000de
:020000040000fa
:04014400dc010000da
:020000040000fa
:04014800dc010000d6
:020000040000fa
:04014c00dc010000d2
:020000040000fa
:04015000dc010000ce
:020000040000fa
:04015400dc010000ca
:020000040000fa
:04015800dc010000c6
:020000040000fa
:04015c00dc010000c2
:020000040000fa
:04016000dc010000be
:020000040000fa
:04016400dc010000ba
:020000040000fa
:04016800dc010000b6
:020000040000fa
:04016c00dc010000b2
:020000040000fa
:04017000dc010000ae
:020000040000fa
:04017400dc010000aa
:020000040000fa
:04017800dc010000a6
:020000040000fa
:04017c00dc010000a2
:020000040000fa
:04018000dc0100009e
:020000040000fa
:04018400dc0100009a
:020000040000fa
:04018800dc01000096
:020000040000fa
:04018c00dc01000092
:020000040000fa
:04019000dc0100008e
:020000040000fa
:04019400dc0100008a
:020000040000fa
:04019800dc01000086
:020000040000fa
:04019c00dc01000082
:020000040000fa
:0401a000dc0100007e
:020000040000fa
:0401a400dc0100007a
:020000040000fa
:0401a800dc01000076
:020000040000fa
:0401ac00dc01000072
:020000040000fa
:0401b000dc0100006e
:020000040000fa
:0401b400dc0100006a
:020000040000fa
:0401b800dc01000066
:020000040000fa
:0401bc00dc01000062
:020000040000fa
:0401c000dc0100005e
:020000040000fa
:0401c400dc0100005a
:020000040000fa
:0401c800dc01000056
:020000040000fa
:0401cc00dc01000052
:020000040000fa
:0401d000dc0100004e
:020000040000fa
:0401d400dc0100004a
:020000040000fa
:0401d800dc01000046
:020000040000fa
:100200006f8820000ef720000e018800000000001b
:10021000000020000000e000020032000001200089
:100220002002880014000700650007000000e000bd
:1002300003003a0080362000010020000200370051
:100240000000200001002000810f7000010032003a
:1002500014000700000020000000e000020032004f
:100260000000020000000000b802020000000000d0
:100270000040da000000fe004440a900e000200039
:100280000000e0000300320000002000a001880010
:100290004440a800000006008a1f78008b1f7800e9
:1002a0000000060091018800800478000000eb0047
:1002b0001a003700e284440032a0b4009905ba0065
:1002c000e284440032a0b4009906ba00e2844400fb
:1002d00032a0b4000006eb00476fde00fd07b2005d
:1002e000636ce10003003a00ebff07000000eb0045
:1002f0000a003700606ce10004003a00005deb008a
:100300008b05e900fdff3e00040037006168e10055
:10031000010032000086eb000b00070019c7ba008d
:100320001905ba000e04e00003003a000a00e000dc
:10033000e0ff3a0000000600fe07b2009e018800c0
:100340008a047800f5ff3700395dba008b05e900b3
:100350000c003200295dba008b05e900080032006c
:100360000c00e00003003a00e284440032a0b40034
:10037000f5ff370019ddba008b05e900faff3a00f6
:100380008904e800e184440032a0b40000000600c3
:100390003400f800881f780008002000a8018800b9
:1003a0004f0478000000fa008460a9000080fa0081
:1003b0003400f900004006000040da000000fe00b2
:0403c0000000050034
:020000040000fa
:1003c400436f00006e740000616400006f720000ef
:0c03d4003a300000303000003000000023
:020000040000fa
:1003e000aa020200000000000003200094020200a4
:1003f00000000000aa02020000000000000320002c
:100400009402020000000000aa02020000000000a6
:1004100000032000940202000000000042020200db
:100420000000000080032000940202000000000091
:10043000420202000000000080002000940202003e
:100440000000000042020200000000001000200036
:1004500094020200000000004202020000000000be
:10046000600020009402020000000000420202002e
:1004700000000000f00020009402020000000000d4
:1004800000000600e042a90000000000c6e2ef0004
:1004900000000000e062a80000000000d442a800b4
:1004a00000000000c8e2af0052020400000000009b
:1004b000d442a90000000000e062a9000000000092
:1004c000c662ef000000000000000600811f7800f7
:1004d00080007800314078000004e0000500320020
:1004e00042020200000000007e0202000000000044
:1004f000f8ff3700cf00780000000600e042a800b7
:1005000000000000e062a90000000000d442a80042
:1005100000000000c8e2b70000000000d442a900bb
:100520000000000000000600e042a90000000000fa
:10053000e062a90000000000d442a8000000000012
:10054000c8e2b70000000000d442a900000000008b
:1005500000000600801f78000000eb00b04322007e
:100560000000e900feff3a004f007800000006009e
:100570000000fa008268ef008368ef008468ef00f3
:100580008568ef001e00070095ff070016000700b2
:10059000201e2800cdff0700baff070090c8b30057
:1005a000e1ff0700b7ff070085c8bf000043b000a8
:1005b000d2ff0700b3ff070084c8bf000043b000ac
:1005c000ceff0700afff070083c8bf000043b000a5
:1005d000caff0700abff070082c8bf000043b0009e
:1005e000c6ff0700ecff37000000fa008400a900f6
:1005f0008200a8008c00a8000080fa00000006001d
:100600000000fa00c222ef0000000000c422ef0048
:10061000000000000080eb000016880000000000d1
:10062000c822ef0000000000ca22ef000000000016
:10063000c622ef00000000000080eb00401588009b
:1006400000000000d422ef0000000000d622ef00de
:1006500000000000d222ef0000000000e022ef00c6
:1006600000000000e222ef0000000000de22ef00a8
:10067000000000000080fa0000000600801f7800e3
:100680008268ec00a00020008248e3000d003a00e0
:100690008268ef008368ec008348e30009003a00b9
:1006a0008368ef008468ec008448e30005003a00aa
:1006b0008468ef008568ec008548e30001003a009b
:1006c0008568ef008400a9004f0078000040060014
:020000040000fa
:1006d000000800008000000000000000800f000003
:1006e00080000000000000008008000006000000fc
:0806f000000000000000000002
:020000040000fa
:0406f80000000000fe
:020000040000fa
:0200000401f009
:04000000e0b9000063
:020000040000fa
:0200000401f009
:04000400ff7f00007a
:020000040000fa
:0200000401f009
:04000800feff0000f7
:020000040000fa
:0200000401f009
:04001400ffff0000ea
:00000001FF
