:020000040000fa
:080000000001040000000000f3
:020000040000fa
:04000800c80100002b
:020000040000fa
:04000c00c801000027
:020000040000fa
:04001000c801000023
:020000040000fa
:04001400c80100001f
:020000040000fa
:04001800c80100001b
:020000040000fa
:04001c00c801000017
:020000040000fa
:04002000c801000013
:020000040000fa
:04002400c80100000f
:020000040000fa
:04002800c80100000b
:020000040000fa
:04002c00c801000007
:020000040000fa
:04003000c801000003
:020000040000fa
:040034006003000065
:020000040000fa
:04003800c8010000fb
:020000040000fa
:04003c00c8010000f7
:020000040000fa
:04004000c8010000f3
:020000040000fa
:04004400c8010000ef
:020000040000fa
:04004800c8010000eb
:020000040000fa
:04004c00c8010000e7
:020000040000fa
:04005000c8010000e3
:020000040000fa
:04005400c8010000df
:020000040000fa
:04005800c8010000db
:020000040000fa
:04005c00c8010000d7
:020000040000fa
:04006000c8010000d3
:020000040000fa
:04006400c8010000cf
:020000040000fa
:04006800c8010000cb
:020000040000fa
:04006c00c8010000c7
:020000040000fa
:04007000c8010000c3
:020000040000fa
:04007400c8010000bf
:020000040000fa
:04007800c8010000bb
:020000040000fa
:04007c00c8010000b7
:020000040000fa
:04008000c8010000b3
:020000040000fa
:04008400c8010000af
:020000040000fa
:04008800c8010000ab
:020000040000fa
:04008c00c8010000a7
:020000040000fa
:04009000c8010000a3
:020000040000fa
:04009400c80100009f
:020000040000fa
:04009800c80100009b
:020000040000fa
:04009c00c801000097
:020000040000fa
:0400a000c801000093
:020000040000fa
:0400a400c80100008f
:020000040000fa
:0400a800c80100008b
:020000040000fa
:0400ac00c801000087
:020000040000fa
:0400b000c801000083
:020000040000fa
:0400b400c80100007f
:020000040000fa
:0400b800c80100007b
:020000040000fa
:0400bc00c801000077
:020000040000fa
:0400c000c801000073
:020000040000fa
:0400c400c80100006f
:020000040000fa
:0400c800c80100006b
:020000040000fa
:0400cc00c801000067
:020000040000fa
:0400d000c801000063
:020000040000fa
:0400d400c80100005f
:020000040000fa
:0400d800c80100005b
:020000040000fa
:04010800c80100002a
:020000040000fa
:04010c00c801000026
:020000040000fa
:04011000c801000022
:020000040000fa
:04011400c80100001e
:020000040000fa
:04011800c80100001a
:020000040000fa
:04011c00c801000016
:020000040000fa
:04012000c801000012
:020000040000fa
:04012400c80100000e
:020000040000fa
:04012800c80100000a
:020000040000fa
:04012c00c801000006
:020000040000fa
:04013000c801000002
:020000040000fa
:04013400c8010000fe
:020000040000fa
:04013800c8010000fa
:020000040000fa
:04013c00c8010000f6
:020000040000fa
:04014000c8010000f2
:020000040000fa
:04014400c8010000ee
:020000040000fa
:04014800c8010000ea
:020000040000fa
:04014c00c8010000e6
:020000040000fa
:04015000c8010000e2
:020000040000fa
:04015400c8010000de
:020000040000fa
:04015800c8010000da
:020000040000fa
:04015c00c8010000d6
:020000040000fa
:04016000c8010000d2
:020000040000fa
:04016400c8010000ce
:020000040000fa
:04016800c8010000ca
:020000040000fa
:04016c00c8010000c6
:020000040000fa
:04017000c8010000c2
:020000040000fa
:04017400c8010000be
:020000040000fa
:04017800c8010000ba
:020000040000fa
:04017c00c8010000b6
:020000040000fa
:04018000c8010000b2
:020000040000fa
:04018400c8010000ae
:020000040000fa
:04018800c8010000aa
:020000040000fa
:04018c00c8010000a6
:020000040000fa
:04019000c8010000a2
:020000040000fa
:04019400c80100009e
:020000040000fa
:04019800c80100009a
:020000040000fa
:04019c00c801000096
:020000040000fa
:0401a000c801000092
:020000040000fa
:0401a400c80100008e
:020000040000fa
:0401a800c80100008a
:020000040000fa
:0401ac00c801000086
:020000040000fa
:0401b000c801000082
:020000040000fa
:0401b400c80100007e
:020000040000fa
:0401b800c80100007a
:020000040000fa
:0401bc00c801000076
:020000040000fa
:0401c000c801000072
:020000040000fa
:0401c400c80100006e
:020000040000fa
:0401c800c80100006a
:020000040000fa
:0401cc00c801000066
:020000040000fa
:0401d000c801000062
:020000040000fa
:0401d400c80100005e
:020000040000fa
:0401d800c80100005a
:020000040000fa
:100200008f8820000ef720000e01880000000000fb
:10021000000020000000e000020032000001200089
:1002200020028800140007005b0007000000e000c7
:1002300003003a00003b20000100200002003700cc
:100240000000200001002000810f7000010032003a
:1002500014000700000020000000e000020032004f
:100260000000020000000000ba02020000000000ce
:100270000040da000000fe004440a90060002000b9
:100280000000e0000300320000002000a001880010
:100290004440a800000006008a1f78008b1f7800e9
:1002a0000000060091018800800478000000eb0047
:1002b0001a003700e284440032a0b4009905ba0065
:1002c000e284440032a0b4009906ba00e2844400fb
:1002d00032a0b4000006eb00476fde00fd07b2005d
:1002e000636ce10003003a00ebff07000000eb0045
:1002f0000a003700606ce10004003a00005deb008a
:100300008b05e900fdff3e00040037006168e10055
:10031000010032000086eb000b00070019c7ba008d
:100320001905ba000e04e00003003a000a00e000dc
:10033000e0ff3a0000000600fe07b2009e018800c0
:100340008a047800f5ff3700395dba008b05e900b3
:100350000c003200295dba008b05e900080032006c
:100360000c00e00003003a00e284440032a0b40034
:10037000f5ff370019ddba008b05e900faff3a00f6
:100380008904e800e184440032a0b40000000600c3
:0c0390000040da000000fe000000050044
:020000040000fa
:0c039c00526500006c6f00006a00000059
:020000040000fa
:1003a800801f78002074200061042000720520005e
:1003b80001487800024878004227a8004f007800da
:1003c80000000600440202000000000010002000a7
:1003d800960202000000000000000600ac020200c5
:1003e8000000000000032000960202000000000048
:1003f800ac02020000000000000320009602020088
:1004080000000000ac020200000000000003200011
:1004180096020200000000004402020000000000f2
:10042800800320009602020000000000440202003f
:10043800000000008000200096020200000000007a
:100448004402020000000000100020009602020092
:1004580000000000440202000000000060002000cc
:1004680096020200000000004402020000000000a2
:10047800f0002000960202000000000000000600c4
:10048800d462a90000000000c6e2ef0000000000ee
:10049800d522a80000000000d442a80000000000f7
:1004a800c8e2af005402040000000000d442a900d2
:1004b80000000000d522a90000000000c662ef007d
:1004c8000000000000000600811f7800800078000e
:1004d800314078000004e0000500320044020200c8
:1004e800000000008002020000000000f8ff370052
:1004f800cf00780000000600d462a80000000000c9
:10050800d522a90000000000d442a8000000000085
:10051800c8e2b70000000000d442a90000000000b3
:1005280000000600d462a90000000000d522a9003e
:1005380000000000d442a80000000000c8e2b70094
:1005480000000000d442a9000000000000000600de
:10055800801f78000000eb00b04322000000e90093
:10056800feff3a004f007800000006000000fa0085
:100578008268ef008368ef008468ef008568ef0009
:100588008668ef008768ef003200070093ff0700d6
:100598000021ef000000280010088800200020003b
:1005a800200888007eff070025000700e01c2800bf
:1005b800c5ff070005e1a800b1ff070040ccb30064
:1005c800d8ff0700aeff070087c8bf000043b00090
:1005d800c9ff0700aaff070086c8bf000043b00094
:1005e800c5ff0700a6ff0700a0c3b300c2ff0700ae
:1005f800a3ff070085c8bf000043b000beff070087
:100608009fff070084c8bf000043b000baff07007f
:100618009bff0700a0c3b300b7ff070098ff0700c0
:1006280083c8bf000043b000b3ff070094ff070072
:1006380082c8bf000043b000afff0700deff3700ed
:100648000000fa008460a9008c60a8000080fa000d
:10065800000006000000fa00c822ef0000000000b9
:10066800ca22ef0000000000c622ef0000000000d0
:100678000080eb004015880000000000d422ef0045
:1006880000000000d622ef0000000000d222ef0098
:1006980000000000ce22ef0000000000d022ef0092
:1006a800000000000080eb006016880000000000d9
:1006b8000080fa0000000600801f7800a0002000db
:1006c8008268ec008248e30019003a008268ef0073
:1006d8008368ec00600020008348e30014003a00bf
:1006e8008368ef008468ec00a00020008448e300e1
:1006f8000f003a008468ef008568ec006000200075
:100708008548e3000a003a008568ef008668ec0037
:10071800200020008748e30008003200a0002000e5
:100728008648e30002003a008668ef008768ec001c
:100738008460a9004f0078000040060040002000b7
:100748008648e300faff3a008668ef008768ef0002
:080758009c03040000000000f6
:020000040000fa
:10076000000800008000000000000000800f000072
:100770008000000000000000800800000800000069
:08078000000000000000000071
:020000040000fa
:04078800000000006d
:020000040000fa
:0200000401f009
:04000000e0b9000063
:020000040000fa
:0200000401f009
:04000400ff7f00007a
:020000040000fa
:0200000401f009
:04000800feff0000f7
:020000040000fa
:0200000401f009
:04001400ffff0000ea
:00000001FF
