:020000040000fa
:080000000001040000000000f3
:020000040000fa
:04000800c80100002b
:020000040000fa
:04000c00c801000027
:020000040000fa
:04001000c801000023
:020000040000fa
:04001400c80100001f
:020000040000fa
:04001800c80100001b
:020000040000fa
:04001c00c801000017
:020000040000fa
:04002000c801000013
:020000040000fa
:04002400c80100000f
:020000040000fa
:04002800c80100000b
:020000040000fa
:04002c00c801000007
:020000040000fa
:04003000c801000003
:020000040000fa
:04003400c8010000ff
:020000040000fa
:04003800c8010000fb
:020000040000fa
:04003c00c8010000f7
:020000040000fa
:04004000c8010000f3
:020000040000fa
:04004400c8010000ef
:020000040000fa
:04004800c8010000eb
:020000040000fa
:04004c000a030000a3
:020000040000fa
:04005000c8010000e3
:020000040000fa
:04005400c8010000df
:020000040000fa
:04005800c8010000db
:020000040000fa
:04005c00c8010000d7
:020000040000fa
:04006000c8010000d3
:020000040000fa
:04006400c8010000cf
:020000040000fa
:04006800c8010000cb
:020000040000fa
:04006c00c8010000c7
:020000040000fa
:04007000c8010000c3
:020000040000fa
:04007400c8010000bf
:020000040000fa
:04007800c8010000bb
:020000040000fa
:04007c00c8010000b7
:020000040000fa
:04008000c8010000b3
:020000040000fa
:04008400c8010000af
:020000040000fa
:04008800c8010000ab
:020000040000fa
:04008c00c8010000a7
:020000040000fa
:04009000c8010000a3
:020000040000fa
:04009400c80100009f
:020000040000fa
:04009800c80100009b
:020000040000fa
:04009c00c801000097
:020000040000fa
:0400a000c801000093
:020000040000fa
:0400a400c80100008f
:020000040000fa
:0400a800c80100008b
:020000040000fa
:0400ac00c801000087
:020000040000fa
:0400b000c801000083
:020000040000fa
:0400b400c80100007f
:020000040000fa
:0400b800c80100007b
:020000040000fa
:0400bc00c801000077
:020000040000fa
:0400c000c801000073
:020000040000fa
:0400c400c80100006f
:020000040000fa
:0400c800c80100006b
:020000040000fa
:0400cc00c801000067
:020000040000fa
:0400d000c801000063
:020000040000fa
:0400d400c80100005f
:020000040000fa
:0400d800c80100005b
:020000040000fa
:04010800c80100002a
:020000040000fa
:04010c00c801000026
:020000040000fa
:04011000c801000022
:020000040000fa
:04011400c80100001e
:020000040000fa
:04011800c80100001a
:020000040000fa
:04011c00c801000016
:020000040000fa
:04012000c801000012
:020000040000fa
:04012400c80100000e
:020000040000fa
:04012800c80100000a
:020000040000fa
:04012c00c801000006
:020000040000fa
:04013000c801000002
:020000040000fa
:04013400c8010000fe
:020000040000fa
:04013800c8010000fa
:020000040000fa
:04013c00c8010000f6
:020000040000fa
:04014000c8010000f2
:020000040000fa
:04014400c8010000ee
:020000040000fa
:04014800c8010000ea
:020000040000fa
:04014c00c8010000e6
:020000040000fa
:04015000c8010000e2
:020000040000fa
:04015400c8010000de
:020000040000fa
:04015800c8010000da
:020000040000fa
:04015c00c8010000d6
:020000040000fa
:04016000c8010000d2
:020000040000fa
:04016400c8010000ce
:020000040000fa
:04016800c8010000ca
:020000040000fa
:04016c00c8010000c6
:020000040000fa
:04017000c8010000c2
:020000040000fa
:04017400c8010000be
:020000040000fa
:04017800c8010000ba
:020000040000fa
:04017c00c8010000b6
:020000040000fa
:04018000c8010000b2
:020000040000fa
:04018400c8010000ae
:020000040000fa
:04018800c8010000aa
:020000040000fa
:04018c00c8010000a6
:020000040000fa
:04019000c8010000a2
:020000040000fa
:04019400c80100009e
:020000040000fa
:04019800c80100009a
:020000040000fa
:04019c00c801000096
:020000040000fa
:0401a000c801000092
:020000040000fa
:0401a400c80100008e
:020000040000fa
:0401a800c80100008a
:020000040000fa
:0401ac00c801000086
:020000040000fa
:0401b000c801000082
:020000040000fa
:0401b400c80100007e
:020000040000fa
:0401b800c80100007a
:020000040000fa
:0401bc00c801000076
:020000040000fa
:0401c000c801000072
:020000040000fa
:0401c400c80100006e
:020000040000fa
:0401c800c80100006a
:020000040000fa
:0401cc00c801000066
:020000040000fa
:0401d000c801000062
:020000040000fa
:0401d400c80100005e
:020000040000fa
:0401d800c80100005a
:020000040000fa
:10020000af9220000ef720000e01880000000000d1
:10021000000020000000e000020032000001200089
:1002200020028800140007005b0007000000e000c7
:1002300003003a0080442000010020000200370043
:100240000000200001002000810f7000010032003a
:1002500014000700000020000000e000020032004f
:100260000000020000000000160302000000000071
:100270000040da000000fe004440a9000000200019
:100280000000e0000300320000002000a001880010
:100290004440a800000006008a1f78008b1f7800e9
:1002a0000000060091018800800478000000eb0047
:1002b0001a003700e284440032a0b4009905ba0065
:1002c000e284440032a0b4009906ba00e2844400fb
:1002d00032a0b4000006eb00476fde00fd07b2005d
:1002e000636ce10003003a00ebff07000000eb0045
:1002f0000a003700606ce10004003a00005deb008a
:100300008b05e900fdff3e00040037006168e10055
:10031000010032000086eb000b00070019c7ba008d
:100320001905ba000e04e00003003a000a00e000dc
:10033000e0ff3a0000000600fe07b2009e018800c0
:100340008a047800f5ff3700395dba008b05e900b3
:100350000c003200295dba008b05e900080032006c
:100360000c00e00003003a00e284440032a0b40034
:10037000f5ff370019ddba008b05e900faff3a00f6
:100380008904e800e184440032a0b40000000600c3
:0c0390000040da000000fe000000050044
:020000040000fa
:10039c00811f78008000eb00b04078000104e00081
:1003ac00080032008540a900811088000000000080
:1003bc008540ae00de01040000000000d001040006
:1003cc0000000000cf00780000000600c362a80007
:1003dc0000000000f402020000000000d402a8009b
:1003ec0000000000f402020000000000d402a9008a
:1003fc0000000000f402020000000000d402a8007b
:10040c0000000000f40202000000000000000600e2
:10041c00801f7800207420006104200072052000e9
:10042c0001487800024878004227a8004f00780065
:10043c00000006007e0202000000000010002000f8
:10044c00d00202000000000000000600e6020200dc
:10045c000000000000032000d00202000000000099
:10046c00e60202000000000000032000d00202009f
:10047c0000000000e6020200000000000003200063
:10048c00d0020200000000007e020200000000000a
:10049c0080032000d0020200000000007e02020057
:1004ac000000000080002000d002020000000000cc
:1004bc007e0202000000000010002000d0020200aa
:1004cc00000000007e02020000000000600020001e
:1004dc00d0020200000000007e02020000000000ba
:1004ec00f0002000d0020200000000000000060016
:1004fc00d462a90000000000c6e2ef00000000007a
:10050c00d522a80000000000d442a8000000000082
:10051c00c8e2af008e02040000000000d442a90023
:10052c0000000000d522a90000000000c662ef0008
:10053c000000000000000600811f78008000780099
:10054c00314078000004e000050032007e02020019
:10055c0000000000ba02020000000000f8ff3700a3
:10056c00cf00780000000600d462a8000000000054
:10057c00d522a90000000000d442a8000000000011
:10058c00c8e2b70000000000d442a900000000003f
:10059c0000000600d462a90000000000d522a900ca
:1005ac0000000000d442a80000000000c8e2b70020
:1005bc0000000000d442a90000000000000006006a
:1005cc00801f78000000eb00b04322000000e9001f
:1005dc00feff3a004f00780000000600801f7800f4
:1005ec00811f7800a10020000000eb000000e90052
:1005fc00feff3a008100e900fbff3a00cf007800d3
:10060c004f00780000000600801f780090108000da
:10061c00d01088008520a9004f007800004006000b
:10062c000000fa00760007000c22ef00000000002a
:10063c000000280070108800000000001422ef0059
:10064c00000000001622ef0000000000000028004f
:10065c00c0108800000000001e22ef000000000007
:10066c00620007000de2a800000000000f42a80085
:10067c000000000017e2a800000000001942a800ca
:10068c000000000051ff07000c0007008004200050
:10069c0080108800f004200080108800c004200026
:1006ac00801088001004200080108800cbff070009
:1006bc003d00070000000000feff37000000fa00bc
:1006cc000080200032ff0700c4ff0700c3ff0700b3
:1006dc00c2ff0700c1ff0700c0ff07009080200089
:1006ec002bff0700bdff0700bcff0700bbff070087
:1006fc00baff0700b9ff07007081200024ff070034
:10070c00b6ff0700b5ff0700b4ff0700b3ff0700f3
:10071c00b2ff0700508220001dff0700afff07004b
:10072c00aeff0700adff0700acff0700abff0700f3
:10073c005084200016ff0700a8ff0700a7ff070042
:10074c00a6ff0700a5ff0700a4ff070000852000f7
:10075c000fff0700a1ff0700a0ff07009fff070086
:10076c009eff07009dff0700a087200008ff0700e1
:10077c009aff070099ff070098ff070097ff0700f3
:10078c0096ff07009088200001ff070093ff0700e9
:10079c0092ff070091ff070090ff07008fff0700f3
:1007ac000080fa00000006000000fa00408a2000d9
:1007bc00f7fe070089ff070088ff070087ff070087
:1007cc0086ff070085ff070060892000f0fe070008
:1007dc0082ff070081ff070080ff07007fff0700f3
:1007ec007eff07000080fa00000006000000fa00ff
:1007fc008520a9008d20a8000080fa0000000600ca
:10080c000000fa00d422ef0000000000d622ef0016
:10081c0000000000d222ef0000000000d202a9006c
:10082c0000000000c222ef0000000000c422ef0014
:10083c0000000000c022ef0000000000c162a9000f
:10084c0000000000e022ef0000000000e222ef00b8
:10085c0000000000de22ef0000000000de42a800d5
:10086c0000000000de62a90000000000de82a8008b
:10087c0000000000dea2a900000000000080fa00c9
:04088c000000060062
:020000040000fa
:10089000a80800008000000000000000800f000099
:1008a0008000000000000000280900000200000095
:1008b0000000000000080000a80000000200000086
:1008c00041542b00525354000d0a000041542b0098
:1008d00043574d004f4445003d310d000a00410093
:1008e000542b430049504d0055583d00300d0a002f
:1008f000004154002b4357004a4150003d22440020
:10090000616e6900656c6100222c2200303030007d
:1009100030303000303022000d0a000041542b00ee
:100920004349460053520d000a004100542b430036
:100930004950530054415200543d2200544350004a
:10094000222c2200313932002e313600382e34006c
:10095000332e3200323022002c39300030300d007e
:100960000a004100542b430049504d004f444500bc
:100970003d310d000a004100542b43004950530003
:10098000454e44000d0a000041542b0043495000dd
:10099000434c4f0053450d000a002b002b2b000049
:0409a0000000000053
:020000040000fa
:0409a400000000004f
:020000040000fa
:0200000401f009
:04000000e0b9000063
:020000040000fa
:0200000401f009
:04000400ff7f00007a
:020000040000fa
:0200000401f009
:04000800feff0000f7
:020000040000fa
:0200000401f009
:04001400ffff0000ea
:00000001FF
