:020000040000fa
:080000000001040000000000f3
:020000040000fa
:04000800c80100002b
:020000040000fa
:04000c00c801000027
:020000040000fa
:04001000c801000023
:020000040000fa
:04001400c80100001f
:020000040000fa
:04001800c80100001b
:020000040000fa
:04001c00c801000017
:020000040000fa
:04002000c801000013
:020000040000fa
:04002400c80100000f
:020000040000fa
:04002800c80100000b
:020000040000fa
:04002c00c801000007
:020000040000fa
:04003000c801000003
:020000040000fa
:04003400c8010000ff
:020000040000fa
:04003800c8010000fb
:020000040000fa
:04003c00c8010000f7
:020000040000fa
:04004000c8010000f3
:020000040000fa
:04004400c8010000ef
:020000040000fa
:04004800c8010000eb
:020000040000fa
:04004c00c8010000e7
:020000040000fa
:04005000c8010000e3
:020000040000fa
:040054000a0300009b
:020000040000fa
:04005800c8010000db
:020000040000fa
:04005c00c8010000d7
:020000040000fa
:04006000c8010000d3
:020000040000fa
:04006400c8010000cf
:020000040000fa
:04006800c8010000cb
:020000040000fa
:04006c00c8010000c7
:020000040000fa
:04007000c8010000c3
:020000040000fa
:04007400c8010000bf
:020000040000fa
:04007800c8010000bb
:020000040000fa
:04007c00c8010000b7
:020000040000fa
:04008000c8010000b3
:020000040000fa
:04008400c8010000af
:020000040000fa
:04008800c8010000ab
:020000040000fa
:04008c00c8010000a7
:020000040000fa
:04009000c8010000a3
:020000040000fa
:04009400c80100009f
:020000040000fa
:04009800c80100009b
:020000040000fa
:04009c00c801000097
:020000040000fa
:0400a000c801000093
:020000040000fa
:0400a400c80100008f
:020000040000fa
:0400a800c80100008b
:020000040000fa
:0400ac00c801000087
:020000040000fa
:0400b000c801000083
:020000040000fa
:0400b400c80100007f
:020000040000fa
:0400b800c80100007b
:020000040000fa
:0400bc00c801000077
:020000040000fa
:0400c000c801000073
:020000040000fa
:0400c400c80100006f
:020000040000fa
:0400c800c80100006b
:020000040000fa
:0400cc00c801000067
:020000040000fa
:0400d000c801000063
:020000040000fa
:0400d400c80100005f
:020000040000fa
:0400d800c80100005b
:020000040000fa
:04010800c80100002a
:020000040000fa
:04010c00c801000026
:020000040000fa
:04011000c801000022
:020000040000fa
:04011400c80100001e
:020000040000fa
:04011800c80100001a
:020000040000fa
:04011c00c801000016
:020000040000fa
:04012000c801000012
:020000040000fa
:04012400c80100000e
:020000040000fa
:04012800c80100000a
:020000040000fa
:04012c00c801000006
:020000040000fa
:04013000c801000002
:020000040000fa
:04013400c8010000fe
:020000040000fa
:04013800c8010000fa
:020000040000fa
:04013c00c8010000f6
:020000040000fa
:04014000c8010000f2
:020000040000fa
:04014400c8010000ee
:020000040000fa
:04014800c8010000ea
:020000040000fa
:04014c00c8010000e6
:020000040000fa
:04015000c8010000e2
:020000040000fa
:04015400c8010000de
:020000040000fa
:04015800c8010000da
:020000040000fa
:04015c00c8010000d6
:020000040000fa
:04016000c8010000d2
:020000040000fa
:04016400c8010000ce
:020000040000fa
:04016800c8010000ca
:020000040000fa
:04016c00c8010000c6
:020000040000fa
:04017000c8010000c2
:020000040000fa
:04017400c8010000be
:020000040000fa
:04017800c8010000ba
:020000040000fa
:04017c00c8010000b6
:020000040000fa
:04018000c8010000b2
:020000040000fa
:04018400c8010000ae
:020000040000fa
:04018800c8010000aa
:020000040000fa
:04018c00c8010000a6
:020000040000fa
:04019000c8010000a2
:020000040000fa
:04019400c80100009e
:020000040000fa
:04019800c80100009a
:020000040000fa
:04019c00c801000096
:020000040000fa
:0401a000c801000092
:020000040000fa
:0401a400c80100008e
:020000040000fa
:0401a800c80100008a
:020000040000fa
:0401ac00c801000086
:020000040000fa
:0401b000c801000082
:020000040000fa
:0401b400c80100007e
:020000040000fa
:0401b800c80100007a
:020000040000fa
:0401bc00c801000076
:020000040000fa
:0401c000c801000072
:020000040000fa
:0401c400c80100006e
:020000040000fa
:0401c800c80100006a
:020000040000fa
:0401cc00c801000066
:020000040000fa
:0401d000c801000062
:020000040000fa
:0401d400c80100005e
:020000040000fa
:0401d800c80100005a
:020000040000fa
:100200002f8820000ef720000e018800000000005b
:10021000000020000000e000020032000001200089
:1002200020028800140007005b0007000000e000c7
:1002300003003a00a038200001002000020037002f
:100240000000200001002000810f7000010032003a
:1002500014000700000020000000e000020032004f
:10026000000002000000000028030200000000005f
:100270000040da000000fe004440a9000000200019
:100280000000e0000300320000002000a001880010
:100290004440a800000006008a1f78008b1f7800e9
:1002a0000000060091018800800478000000eb0047
:1002b0001a003700e284440032a0b4009905ba0065
:1002c000e284440032a0b4009906ba00e2844400fb
:1002d00032a0b4000006eb00476fde00fd07b2005d
:1002e000636ce10003003a00ebff07000000eb0045
:1002f0000a003700606ce10004003a00005deb008a
:100300008b05e900fdff3e00040037006168e10055
:10031000010032000086eb000b00070019c7ba008d
:100320001905ba000e04e00003003a000a00e000dc
:10033000e0ff3a0000000600fe07b2009e018800c0
:100340008a047800f5ff3700395dba008b05e900b3
:100350000c003200295dba008b05e900080032006c
:100360000c00e00003003a00e284440032a0b40034
:10037000f5ff370019ddba008b05e900faff3a00f6
:100380008904e800e184440032a0b40000000600c3
:0c0390000040da000000fe000000050044
:020000040000fa
:10039c00811f78008000eb00b04078000104e00081
:1003ac00080032008540a900811088000000000080
:1003bc008540ae00de01040000000000d001040006
:1003cc0000000000cf00780000000600c362a80007
:1003dc0000000000f402020000000000d402a8009b
:1003ec0000000000f402020000000000d402a9008a
:1003fc0000000000f402020000000000d402a8007b
:10040c0000000000f40202000000000000000600e2
:10041c00801f7800207420006104200072052000e9
:10042c0001487800024878004227a8004f00780065
:10043c00000006007e0202000000000010002000f8
:10044c00d00202000000000000000600e6020200dc
:10045c000000000000032000d00202000000000099
:10046c00e60202000000000000032000d00202009f
:10047c0000000000e6020200000000000003200063
:10048c00d0020200000000007e020200000000000a
:10049c0080032000d0020200000000007e02020057
:1004ac000000000080002000d002020000000000cc
:1004bc007e0202000000000010002000d0020200aa
:1004cc00000000007e02020000000000600020001e
:1004dc00d0020200000000007e02020000000000ba
:1004ec00f0002000d0020200000000000000060016
:1004fc00d462a90000000000c6e2ef00000000007a
:10050c00d522a80000000000d442a8000000000082
:10051c00c8e2af008e02040000000000d442a90023
:10052c0000000000d522a90000000000c662ef0008
:10053c000000000000000600811f78008000780099
:10054c00314078000004e000050032007e02020019
:10055c0000000000ba02020000000000f8ff3700a3
:10056c00cf00780000000600d462a8000000000054
:10057c00d522a90000000000d442a8000000000011
:10058c00c8e2b70000000000d442a900000000003f
:10059c0000000600d462a90000000000d522a900ca
:1005ac0000000000d442a80000000000c8e2b70020
:1005bc0000000000d442a90000000000000006006a
:1005cc00801f78000000eb00b04322000000e9001f
:1005dc00feff3a004f00780000000600801f7800f4
:1005ec00811f7800a10020000000eb000000e90052
:1005fc00feff3a008100e900fbff3a00cf007800d3
:10060c004f00780000000600801f7800811f7800e2
:10061c00821f780000148000c600de000170a0006c
:10062c00f203200002006000801088008110880016
:10063c004f017800cf0078004f0078008560a9004a
:10064c00004006000000fa00210007000a21ef001c
:10065c0000e12000700888001221ef000c22ef004e
:10066c0000002800701088001422ef0040042000c5
:10067c0000158800000026001015880020f02000ce
:10068c0020158800200020003015880080ff2f00e6
:10069c0040158800aa22ef00060007000de2a80012
:1006ac000f42a800a1e2a80013e1a800000000007e
:1006bc00feff37000000fa0084e0a9008ce0a800df
:1006cc008560a9008d60a8000080fa00000006007b
:1006dc000000fa00c822ef00ca22ef00c642a800b0
:1006ec00e022ef0000000000e222ef00000000001a
:1006fc00de22ef0000000000de42a8000000000037
:08070c000080fa000000060065
:020000040000fa
:10071400000800008000000000000000800f0000be
:1007240080000000000000008008000002000000bb
:080734000000000000000000bd
:020000040000fa
:04073c0000000000b9
:020000040000fa
:0200000401f009
:04000000e0b9000063
:020000040000fa
:0200000401f009
:04000400ff7f00007a
:020000040000fa
:0200000401f009
:04000800feff0000f7
:020000040000fa
:0200000401f009
:04001400ffff0000ea
:00000001FF
